:020000040000FA
:04000000BDEF3FF021
:107F7A000001C6EF3FF00F0EC16E000E8D6E969493
:107F8A001200C0EC3FF0CAEF3FF08D840B0E026E78
:107F9A00260E016E5E0EE82EFED7012EFCD7022EAB
:107FAA00FAD78D940B0E026E260E016E5E0EE82E27
:107FBA00FED7012EFCD7022EFAD78D820B0E026E47
:107FCA00260E016E5E0EE82EFED7012EFCD7022E7B
:107FDA00FAD78D920B0E026E260E016E5E0EE82EF9
:107FEA00FED7012EFCD7022EFAD7CAEF3FF0CAEF0E
:067FFA003FF000EF00F073
:020000040020DA
:08000000FFFFFFFFFFFFFFFF00
:020000040030CA
:0E000000110E181EFF8381FF0FC00FE00F408E
:00000001FF
