:020000040000FA
:040000009FEF3FF03F
:107F1C008D908D828D8412008D808D928D841200B7
:107F2C008D808D828D94120096909692969494806A
:107F3C001200026A016A000EF86E0001A6EF3FF013
:107F4C009AEC3FF0AAEF3FF082A0AFEF3FF0B1EF19
:107F5C003FF0E0EF3FF0340E036EF20EE82EFED74A
:107F6C00032EFCD7010E0124016E000E0220026EBE
:107F7C00040E01180210D8A4C6EF3FF0C8EF3FF072
:107F8C00E0EF3FF0000E026E010E016EE0EF3FF0ED
:107F9C00E0EF3FF0E0EF3FF08EEC3FF0AAEF3FF068
:107FAC0092EC3FF0AAEF3FF096EC3FF0AAEF3FF0D7
:107FBC00AAEF3FF001C003F002C004F00450000A25
:107FCC00D8B4EBEF3FF0AAEF3FF00350010AD8B45E
:107FDC00D2EF3FF0030AD8B4D6EF3FF0010AD8B481
:107FEC00DAEF3FF0AAEF3FF0AAEF3FF0AAEF3FF035
:047FFC0000EF00F0A2
:020000040020DA
:08000000FFFFFFFFFFFFFFFF00
:020000040030CA
:0E000000110E181EFF8381FF0FC00FE00F408E
:00000001FF
